{
  "contractName": "ERC721",
  "abi": [
    {
      "anonymous": false,
      "inputs": [
        {
          "indexed": true,
          "internalType": "address",
          "name": "from",
          "type": "address"
        },
        {
          "indexed": true,
          "internalType": "address",
          "name": "to",
          "type": "address"
        },
        {
          "indexed": true,
          "internalType": "uint256",
          "name": "tokenID",
          "type": "uint256"
        }
      ],
      "name": "Transfer",
      "type": "event"
    },
    {
      "inputs": [
        {
          "internalType": "address",
          "name": "_owner",
          "type": "address"
        }
      ],
      "name": "balanceOf",
      "outputs": [
        {
          "internalType": "uint256",
          "name": "",
          "type": "uint256"
        }
      ],
      "stateMutability": "view",
      "type": "function"
    },
    {
      "inputs": [
        {
          "internalType": "uint256",
          "name": "_tokenId",
          "type": "uint256"
        }
      ],
      "name": "ownerOf",
      "outputs": [
        {
          "internalType": "address",
          "name": "",
          "type": "address"
        }
      ],
      "stateMutability": "view",
      "type": "function"
    },
    {
      "inputs": [
        {
          "internalType": "address",
          "name": "_from",
          "type": "address"
        },
        {
          "internalType": "address",
          "name": "_to",
          "type": "address"
        },
        {
          "internalType": "uint256",
          "name": "_tokenID",
          "type": "uint256"
        }
      ],
      "name": "transferFrom",
      "outputs": [],
      "stateMutability": "payable",
      "type": "function"
    }
  ],
  "bytecode": "0x608060405234801561001057600080fd5b5061084b806100206000396000f3fe6080604052600436106100345760003560e01c806323b872dd146100395780636352211e1461005557806370a0823114610092575b600080fd5b610053600480360381019061004e91906104b6565b6100cf565b005b34801561006157600080fd5b5061007c60048036038101906100779190610509565b6102b6565b6040516100899190610545565b60405180910390f35b34801561009e57600080fd5b506100b960048036038101906100b49190610560565b610366565b6040516100c6919061059c565b60405180910390f35b8173ffffffffffffffffffffffffffffffffffffffff16600073ffffffffffffffffffffffffffffffffffffffff160361013e576040517f08c379a00000000000000000000000000000000000000000000000000000000081526004016101359061063a565b60405180910390fd5b8273ffffffffffffffffffffffffffffffffffffffff1661015e826102b6565b73ffffffffffffffffffffffffffffffffffffffff16146101b4576040517f08c379a00000000000000000000000000000000000000000000000000000000081526004016101ab906106cc565b60405180910390fd5b60018060008473ffffffffffffffffffffffffffffffffffffffff1673ffffffffffffffffffffffffffffffffffffffff1681526020019081526020016000206000828254610203919061071b565b9250508190555060018060008573ffffffffffffffffffffffffffffffffffffffff1673ffffffffffffffffffffffffffffffffffffffff1681526020019081526020016000206000828254610259919061074f565b925050819055508160008083815260200190815260200160002060006101000a81548173ffffffffffffffffffffffffffffffffffffffff021916908373ffffffffffffffffffffffffffffffffffffffff160217905550505050565b60008060008084815260200190815260200160002060009054906101000a900473ffffffffffffffffffffffffffffffffffffffff169050600073ffffffffffffffffffffffffffffffffffffffff168173ffffffffffffffffffffffffffffffffffffffff160361035d576040517f08c379a0000000000000000000000000000000000000000000000000000000008152600401610354906107f5565b60405180910390fd5b80915050919050565b60008073ffffffffffffffffffffffffffffffffffffffff168273ffffffffffffffffffffffffffffffffffffffff16036103d6576040517f08c379a00000000000000000000000000000000000000000000000000000000081526004016103cd906107f5565b60405180910390fd5b600160008373ffffffffffffffffffffffffffffffffffffffff1673ffffffffffffffffffffffffffffffffffffffff168152602001908152602001600020549050919050565b600080fd5b600073ffffffffffffffffffffffffffffffffffffffff82169050919050565b600061044d82610422565b9050919050565b61045d81610442565b811461046857600080fd5b50565b60008135905061047a81610454565b92915050565b6000819050919050565b61049381610480565b811461049e57600080fd5b50565b6000813590506104b08161048a565b92915050565b6000806000606084860312156104cf576104ce61041d565b5b60006104dd8682870161046b565b93505060206104ee8682870161046b565b92505060406104ff868287016104a1565b9150509250925092565b60006020828403121561051f5761051e61041d565b5b600061052d848285016104a1565b91505092915050565b61053f81610442565b82525050565b600060208201905061055a6000830184610536565b92915050565b6000602082840312156105765761057561041d565b5b60006105848482850161046b565b91505092915050565b61059681610480565b82525050565b60006020820190506105b1600083018461058d565b92915050565b600082825260208201905092915050565b7f4572726f722d455243373231207472616e736665722066726f6d20746f20746860008201527f65207a65726f2061646472657373210000000000000000000000000000000000602082015250565b6000610624602f836105b7565b915061062f826105c8565b604082019050919050565b6000602082019050818103600083015261065381610617565b9050919050565b7f547279696e6720746f207472616e736665722074686520746f6b656e2066726f60008201527f6d206164647265737320646f6573206e6f74206f776e21000000000000000000602082015250565b60006106b66037836105b7565b91506106c18261065a565b604082019050919050565b600060208201905081810360008301526106e5816106a9565b9050919050565b7f4e487b7100000000000000000000000000000000000000000000000000000000600052601160045260246000fd5b600061072682610480565b915061073183610480565b9250828201905080821115610749576107486106ec565b5b92915050565b600061075a82610480565b915061076583610480565b925082820390508181111561077d5761077c6106ec565b5b92915050565b7f4f776e657220717565727920666f72206e6f6e2d6578697374656e7420746f6b60008201527f656e000000000000000000000000000000000000000000000000000000000000602082015250565b60006107df6022836105b7565b91506107ea82610783565b604082019050919050565b6000602082019050818103600083015261080e816107d2565b905091905056fea264697066735822122040cb40774ff792e47faeea3023f3af0c1950b71186f0cb039d9a6311af19cae464736f6c63430008100033",
  "immutableReferences": {},
  "source": "//SPDX-License-Identifier: MIT\npragma solidity ^0.8.16;\n\ncontract ERC721{\n   \n   //create a event \n    event Transfer(address indexed from,\n                 address indexed to,\n                 uint indexed tokenID);\n\n    //mapping from tokenID to the owner\n    mapping(uint=>address) private _tokenOwner;\n    //mapping from owner to number of owned tokens\n    mapping(address=>uint) private _OwnedTokenCount;\n\n    //mapping from tokenID to the owner\n    mapping(uint=>address) private _tokenApprovals;\n\n    function balanceOf(address _owner) public view returns(uint){\n        require(_owner!=address(0),\"Owner query for non-existent token\");\n        return _OwnedTokenCount[_owner];\n    }\n\n    function ownerOf(uint _tokenId) public view returns(address){\n        address owner=_tokenOwner[_tokenId];\n        require(owner!=address(0),\"Owner query for non-existent token\");\n        return owner;\n\n    }\n\n    function _exists(uint tokenID) internal view returns(bool){\n        //setting address of nft owner to check the mapping of address \n        //from tokenOwner at the tokenID\n        address owner=_tokenOwner[tokenID];\n        return owner!=address(0);\n    }\n    // minting function\n    function _mint(address to,uint tokenID) internal virtual {\n        //require that the address is not zero.\n        require(to!=address(0),\"ERC721: minting to the zero address.\");\n        //require that the token does not already exist.\n        require(!_exists(tokenID),\"ERC721: Token already exist.\");\n        //we are adding a new address with tokenID for minting\n        _tokenOwner[tokenID]=to;\n        //keep track the each address that is minting and adding the count 1\n        _OwnedTokenCount[to]+=1;\n\n        emit Transfer(address(0),to,tokenID);\n    }\n\n    function transferFrom(address _from,address _to,uint _tokenID) external payable{\n        require(address(0)!=_to,\"Error-ERC721 transfer from to the zero address!\");\n        require(ownerOf(_tokenID)==_from,\"Trying to transfer the token from address does not own!\");\n        _OwnedTokenCount[_to]+=1;\n        _OwnedTokenCount[_from]-=1;\n        _tokenOwner[_tokenID]=_to;\n    }\n}",
  "sourcePath": "/home/user/nft-marketplace-starter-kit/src/contracts/ERC721.sol",
  "compiler": {
    "name": "solc",
    "version": "0.8.16+commit.07a7930e.Emscripten.clang"
  },
  "schemaVersion": "3.4.8",
  "updatedAt": "2022-08-24T06:57:42.382Z",
  "devdoc": {
    "kind": "dev",
    "methods": {},
    "version": 1
  },
  "userdoc": {
    "kind": "user",
    "methods": {},
    "version": 1
  }
}