{
  "contractName": "ERC721Enumerable",
  "abi": [
    {
      "anonymous": false,
      "inputs": [
        {
          "indexed": true,
          "internalType": "address",
          "name": "from",
          "type": "address"
        },
        {
          "indexed": true,
          "internalType": "address",
          "name": "to",
          "type": "address"
        },
        {
          "indexed": true,
          "internalType": "uint256",
          "name": "tokenID",
          "type": "uint256"
        }
      ],
      "name": "Transfer",
      "type": "event"
    },
    {
      "inputs": [
        {
          "internalType": "address",
          "name": "_owner",
          "type": "address"
        }
      ],
      "name": "balanceOf",
      "outputs": [
        {
          "internalType": "uint256",
          "name": "",
          "type": "uint256"
        }
      ],
      "stateMutability": "view",
      "type": "function"
    },
    {
      "inputs": [
        {
          "internalType": "uint256",
          "name": "_tokenId",
          "type": "uint256"
        }
      ],
      "name": "ownerOf",
      "outputs": [
        {
          "internalType": "address",
          "name": "",
          "type": "address"
        }
      ],
      "stateMutability": "view",
      "type": "function"
    },
    {
      "inputs": [
        {
          "internalType": "address",
          "name": "_from",
          "type": "address"
        },
        {
          "internalType": "address",
          "name": "_to",
          "type": "address"
        },
        {
          "internalType": "uint256",
          "name": "_tokenID",
          "type": "uint256"
        }
      ],
      "name": "transferFrom",
      "outputs": [],
      "stateMutability": "payable",
      "type": "function"
    },
    {
      "inputs": [
        {
          "internalType": "uint256",
          "name": "index",
          "type": "uint256"
        }
      ],
      "name": "tokenByIndex",
      "outputs": [
        {
          "internalType": "uint256",
          "name": "",
          "type": "uint256"
        }
      ],
      "stateMutability": "view",
      "type": "function"
    },
    {
      "inputs": [
        {
          "internalType": "address",
          "name": "owner",
          "type": "address"
        },
        {
          "internalType": "uint256",
          "name": "index",
          "type": "uint256"
        }
      ],
      "name": "tokenOfOwnerByIndex",
      "outputs": [
        {
          "internalType": "uint256",
          "name": "",
          "type": "uint256"
        }
      ],
      "stateMutability": "view",
      "type": "function"
    },
    {
      "inputs": [],
      "name": "totalSupply",
      "outputs": [
        {
          "internalType": "uint256",
          "name": "",
          "type": "uint256"
        }
      ],
      "stateMutability": "view",
      "type": "function"
    }
  ],
  "bytecode": "0x608060405234801561001057600080fd5b50610b86806100206000396000f3fe6080604052600436106100555760003560e01c806318160ddd1461005a57806323b872dd146100855780632f745c59146100a15780634f6ccce7146100de5780636352211e1461011b57806370a0823114610158575b600080fd5b34801561006657600080fd5b5061006f610195565b60405161007c919061062a565b60405180910390f35b61009f600480360381019061009a91906106d4565b6101a2565b005b3480156100ad57600080fd5b506100c860048036038101906100c39190610727565b610389565b6040516100d5919061062a565b60405180910390f35b3480156100ea57600080fd5b5061010560048036038101906101009190610767565b610439565b604051610112919061062a565b60405180910390f35b34801561012757600080fd5b50610142600480360381019061013d9190610767565b6104aa565b60405161014f91906107a3565b60405180910390f35b34801561016457600080fd5b5061017f600480360381019061017a91906107be565b61055a565b60405161018c919061062a565b60405180910390f35b6000600380549050905090565b8173ffffffffffffffffffffffffffffffffffffffff16600073ffffffffffffffffffffffffffffffffffffffff1603610211576040517f08c379a00000000000000000000000000000000000000000000000000000000081526004016102089061086e565b60405180910390fd5b8273ffffffffffffffffffffffffffffffffffffffff16610231826104aa565b73ffffffffffffffffffffffffffffffffffffffff1614610287576040517f08c379a000000000000000000000000000000000000000000000000000000000815260040161027e90610900565b60405180910390fd5b60018060008473ffffffffffffffffffffffffffffffffffffffff1673ffffffffffffffffffffffffffffffffffffffff16815260200190815260200160002060008282546102d6919061094f565b9250508190555060018060008573ffffffffffffffffffffffffffffffffffffffff1673ffffffffffffffffffffffffffffffffffffffff168152602001908152602001600020600082825461032c9190610983565b925050819055508160008083815260200190815260200160002060006101000a81548173ffffffffffffffffffffffffffffffffffffffff021916908373ffffffffffffffffffffffffffffffffffffffff160217905550505050565b60006103948361055a565b82106103d5576040517f08c379a00000000000000000000000000000000000000000000000000000000081526004016103cc90610a03565b60405180910390fd5b600560008473ffffffffffffffffffffffffffffffffffffffff1673ffffffffffffffffffffffffffffffffffffffff168152602001908152602001600020828154811061042657610425610a23565b5b9060005260206000200154905092915050565b6000610443610195565b8210610484576040517f08c379a000000000000000000000000000000000000000000000000000000000815260040161047b90610a9e565b60405180910390fd5b6003828154811061049857610497610a23565b5b90600052602060002001549050919050565b60008060008084815260200190815260200160002060009054906101000a900473ffffffffffffffffffffffffffffffffffffffff169050600073ffffffffffffffffffffffffffffffffffffffff168173ffffffffffffffffffffffffffffffffffffffff1603610551576040517f08c379a000000000000000000000000000000000000000000000000000000000815260040161054890610b30565b60405180910390fd5b80915050919050565b60008073ffffffffffffffffffffffffffffffffffffffff168273ffffffffffffffffffffffffffffffffffffffff16036105ca576040517f08c379a00000000000000000000000000000000000000000000000000000000081526004016105c190610b30565b60405180910390fd5b600160008373ffffffffffffffffffffffffffffffffffffffff1673ffffffffffffffffffffffffffffffffffffffff168152602001908152602001600020549050919050565b6000819050919050565b61062481610611565b82525050565b600060208201905061063f600083018461061b565b92915050565b600080fd5b600073ffffffffffffffffffffffffffffffffffffffff82169050919050565b60006106758261064a565b9050919050565b6106858161066a565b811461069057600080fd5b50565b6000813590506106a28161067c565b92915050565b6106b181610611565b81146106bc57600080fd5b50565b6000813590506106ce816106a8565b92915050565b6000806000606084860312156106ed576106ec610645565b5b60006106fb86828701610693565b935050602061070c86828701610693565b925050604061071d868287016106bf565b9150509250925092565b6000806040838503121561073e5761073d610645565b5b600061074c85828601610693565b925050602061075d858286016106bf565b9150509250929050565b60006020828403121561077d5761077c610645565b5b600061078b848285016106bf565b91505092915050565b61079d8161066a565b82525050565b60006020820190506107b86000830184610794565b92915050565b6000602082840312156107d4576107d3610645565b5b60006107e284828501610693565b91505092915050565b600082825260208201905092915050565b7f4572726f722d455243373231207472616e736665722066726f6d20746f20746860008201527f65207a65726f2061646472657373210000000000000000000000000000000000602082015250565b6000610858602f836107eb565b9150610863826107fc565b604082019050919050565b600060208201905081810360008301526108878161084b565b9050919050565b7f547279696e6720746f207472616e736665722074686520746f6b656e2066726f60008201527f6d206164647265737320646f6573206e6f74206f776e21000000000000000000602082015250565b60006108ea6037836107eb565b91506108f58261088e565b604082019050919050565b60006020820190508181036000830152610919816108dd565b9050919050565b7f4e487b7100000000000000000000000000000000000000000000000000000000600052601160045260246000fd5b600061095a82610611565b915061096583610611565b925082820190508082111561097d5761097c610920565b5b92915050565b600061098e82610611565b915061099983610611565b92508282039050818111156109b1576109b0610920565b5b92915050565b7f4f776e657220496e646578206f7574206f6620626f756e647321000000000000600082015250565b60006109ed601a836107eb565b91506109f8826109b7565b602082019050919050565b60006020820190508181036000830152610a1c816109e0565b9050919050565b7f4e487b7100000000000000000000000000000000000000000000000000000000600052603260045260246000fd5b7f476c6f62616c20496e646578206f7574206f6620626f756e6473210000000000600082015250565b6000610a88601b836107eb565b9150610a9382610a52565b602082019050919050565b60006020820190508181036000830152610ab781610a7b565b9050919050565b7f4f776e657220717565727920666f72206e6f6e2d6578697374656e7420746f6b60008201527f656e000000000000000000000000000000000000000000000000000000000000602082015250565b6000610b1a6022836107eb565b9150610b2582610abe565b604082019050919050565b60006020820190508181036000830152610b4981610b0d565b905091905056fea2646970667358221220cda78774574cffab5912d05a3b191f64fb148c65e32503cd7ed794bdc1c8405064736f6c63430008100033",
  "immutableReferences": {},
  "source": "//SPDX-License-Identifier: MIT\npragma solidity ^0.8.16;\n\nimport './ERC721.sol';\n\ncontract ERC721Enumerable is ERC721{\n    uint[] private _allTokens;\n\n    //mapping from tokeID to positions of _allTokens Array\n    mapping(uint=> uint) private _allTokensIndex;\n    //mapping of owner to list of all owner token ids\n    mapping(address=>uint[]) private _ownedTokens;\n    //mapping from tokenID index of the owner token list\n    mapping(uint=>uint) private _ownedTokensIndex;\n\n    \n    function tokenByIndex(uint index) public view returns(uint){\n        require(index<totalSupply(),\"Global Index out of bounds!\");\n        return _allTokens[index];\n    }\n\n    function tokenOfOwnerByIndex(address owner,uint index) public view returns(uint){\n        require(index<balanceOf(owner),\"Owner Index out of bounds!\");\n        return _ownedTokens[owner][index];\n\n    }\n    //Override the smart contract if you have multiple smart contracts by using override(Contract Name)\n    function _mint(address to,uint tokenID) internal override(ERC721){\n        super._mint(to,tokenID);\n        _addTokensToAllTokenEnumeration(tokenID);\n        _addTokensToOwnerEnumeration(to, tokenID);\n    }\n    \n    //add tokens to _allTokens array and set the postions of index\n    function _addTokensToAllTokenEnumeration(uint tokenID) private {\n        _allTokensIndex[tokenID]=_allTokens.length;\n        _allTokens.push(tokenID);\n    }\n    \n\n    function _addTokensToOwnerEnumeration(address to,uint tokenID) private {\n        _ownedTokensIndex[tokenID]=_ownedTokens[to].length;\n        _ownedTokens[to].push(tokenID);\n\n    }\n    \n\n    //return the total supply of the _allTokens array\n    function totalSupply() public view returns(uint){\n        return _allTokens.length;\n    }\n}\n",
  "sourcePath": "/home/user/nft-marketplace-starter-kit/src/contracts/ERC721Enumerable.sol",
  "compiler": {
    "name": "solc",
    "version": "0.8.16+commit.07a7930e.Emscripten.clang"
  },
  "schemaVersion": "3.4.8",
  "updatedAt": "2022-08-24T06:57:42.399Z",
  "devdoc": {
    "kind": "dev",
    "methods": {},
    "version": 1
  },
  "userdoc": {
    "kind": "user",
    "methods": {},
    "version": 1
  }
}