{
  "contractName": "ERC721Connector",
  "abi": [
    {
      "inputs": [
        {
          "internalType": "string",
          "name": "name",
          "type": "string"
        },
        {
          "internalType": "string",
          "name": "symbol",
          "type": "string"
        }
      ],
      "stateMutability": "nonpayable",
      "type": "constructor"
    },
    {
      "anonymous": false,
      "inputs": [
        {
          "indexed": true,
          "internalType": "address",
          "name": "from",
          "type": "address"
        },
        {
          "indexed": true,
          "internalType": "address",
          "name": "to",
          "type": "address"
        },
        {
          "indexed": true,
          "internalType": "uint256",
          "name": "tokenID",
          "type": "uint256"
        }
      ],
      "name": "Transfer",
      "type": "event"
    },
    {
      "inputs": [],
      "name": "_name",
      "outputs": [
        {
          "internalType": "string",
          "name": "",
          "type": "string"
        }
      ],
      "stateMutability": "view",
      "type": "function"
    },
    {
      "inputs": [],
      "name": "_symbol",
      "outputs": [
        {
          "internalType": "string",
          "name": "",
          "type": "string"
        }
      ],
      "stateMutability": "view",
      "type": "function"
    },
    {
      "inputs": [
        {
          "internalType": "address",
          "name": "_owner",
          "type": "address"
        }
      ],
      "name": "balanceOf",
      "outputs": [
        {
          "internalType": "uint256",
          "name": "",
          "type": "uint256"
        }
      ],
      "stateMutability": "view",
      "type": "function"
    },
    {
      "inputs": [],
      "name": "name",
      "outputs": [
        {
          "internalType": "string",
          "name": "",
          "type": "string"
        }
      ],
      "stateMutability": "view",
      "type": "function"
    },
    {
      "inputs": [
        {
          "internalType": "uint256",
          "name": "_tokenId",
          "type": "uint256"
        }
      ],
      "name": "ownerOf",
      "outputs": [
        {
          "internalType": "address",
          "name": "",
          "type": "address"
        }
      ],
      "stateMutability": "view",
      "type": "function"
    },
    {
      "inputs": [],
      "name": "symbol",
      "outputs": [
        {
          "internalType": "string",
          "name": "",
          "type": "string"
        }
      ],
      "stateMutability": "view",
      "type": "function"
    },
    {
      "inputs": [
        {
          "internalType": "uint256",
          "name": "index",
          "type": "uint256"
        }
      ],
      "name": "tokenByIndex",
      "outputs": [
        {
          "internalType": "uint256",
          "name": "",
          "type": "uint256"
        }
      ],
      "stateMutability": "view",
      "type": "function"
    },
    {
      "inputs": [
        {
          "internalType": "address",
          "name": "owner",
          "type": "address"
        },
        {
          "internalType": "uint256",
          "name": "index",
          "type": "uint256"
        }
      ],
      "name": "tokenOfOwnerByIndex",
      "outputs": [
        {
          "internalType": "uint256",
          "name": "",
          "type": "uint256"
        }
      ],
      "stateMutability": "view",
      "type": "function"
    },
    {
      "inputs": [],
      "name": "totalSupply",
      "outputs": [
        {
          "internalType": "uint256",
          "name": "",
          "type": "uint256"
        }
      ],
      "stateMutability": "view",
      "type": "function"
    },
    {
      "inputs": [
        {
          "internalType": "address",
          "name": "_from",
          "type": "address"
        },
        {
          "internalType": "address",
          "name": "_to",
          "type": "address"
        },
        {
          "internalType": "uint256",
          "name": "_tokenID",
          "type": "uint256"
        }
      ],
      "name": "transferFrom",
      "outputs": [],
      "stateMutability": "payable",
      "type": "function"
    }
  ],
  "bytecode": "0x60806040523480156200001157600080fd5b5060405162001574380380620015748339818101604052810190620000379190620001fa565b818181600090816200004a9190620004ca565b5080600190816200005c9190620004ca565b5050505050620005b1565b6000604051905090565b600080fd5b600080fd5b600080fd5b600080fd5b6000601f19601f8301169050919050565b7f4e487b7100000000000000000000000000000000000000000000000000000000600052604160045260246000fd5b620000d08262000085565b810181811067ffffffffffffffff82111715620000f257620000f162000096565b5b80604052505050565b60006200010762000067565b9050620001158282620000c5565b919050565b600067ffffffffffffffff82111562000138576200013762000096565b5b620001438262000085565b9050602081019050919050565b60005b838110156200017057808201518184015260208101905062000153565b60008484015250505050565b6000620001936200018d846200011a565b620000fb565b905082815260208101848484011115620001b257620001b162000080565b5b620001bf84828562000150565b509392505050565b600082601f830112620001df57620001de6200007b565b5b8151620001f18482602086016200017c565b91505092915050565b6000806040838503121562000214576200021362000071565b5b600083015167ffffffffffffffff81111562000235576200023462000076565b5b6200024385828601620001c7565b925050602083015167ffffffffffffffff81111562000267576200026662000076565b5b6200027585828601620001c7565b9150509250929050565b600081519050919050565b7f4e487b7100000000000000000000000000000000000000000000000000000000600052602260045260246000fd5b60006002820490506001821680620002d257607f821691505b602082108103620002e857620002e76200028a565b5b50919050565b60008190508160005260206000209050919050565b60006020601f8301049050919050565b600082821b905092915050565b600060088302620003527fffffffffffffffffffffffffffffffffffffffffffffffffffffffffffffffff8262000313565b6200035e868362000313565b95508019841693508086168417925050509392505050565b6000819050919050565b6000819050919050565b6000620003ab620003a56200039f8462000376565b62000380565b62000376565b9050919050565b6000819050919050565b620003c7836200038a565b620003df620003d682620003b2565b84845462000320565b825550505050565b600090565b620003f6620003e7565b62000403818484620003bc565b505050565b5b818110156200042b576200041f600082620003ec565b60018101905062000409565b5050565b601f8211156200047a576200044481620002ee565b6200044f8462000303565b810160208510156200045f578190505b620004776200046e8562000303565b83018262000408565b50505b505050565b600082821c905092915050565b60006200049f600019846008026200047f565b1980831691505092915050565b6000620004ba83836200048c565b9150826002028217905092915050565b620004d5826200027f565b67ffffffffffffffff811115620004f157620004f062000096565b5b620004fd8254620002b9565b6200050a8282856200042f565b600060209050601f8311600181146200054257600084156200052d578287015190505b620005398582620004ac565b865550620005a9565b601f1984166200055286620002ee565b60005b828110156200057c5784890151825560018201915060208501945060208101905062000555565b868310156200059c578489015162000598601f8916826200048c565b8355505b6001600288020188555050505b505050505050565b610fb380620005c16000396000f3fe6080604052600436106100915760003560e01c80636352211e116100595780636352211e1461018257806370a08231146101bf57806395d89b41146101fc578063b09f126614610227578063d28d88521461025257610091565b806306fdde031461009657806318160ddd146100c157806323b872dd146100ec5780632f745c59146101085780634f6ccce714610145575b600080fd5b3480156100a257600080fd5b506100ab61027d565b6040516100b891906109cd565b60405180910390f35b3480156100cd57600080fd5b506100d661030f565b6040516100e39190610a08565b60405180910390f35b61010660048036038101906101019190610ab2565b61031c565b005b34801561011457600080fd5b5061012f600480360381019061012a9190610b05565b610506565b60405161013c9190610a08565b60405180910390f35b34801561015157600080fd5b5061016c60048036038101906101679190610b45565b6105b6565b6040516101799190610a08565b60405180910390f35b34801561018e57600080fd5b506101a960048036038101906101a49190610b45565b610627565b6040516101b69190610b81565b60405180910390f35b3480156101cb57600080fd5b506101e660048036038101906101e19190610b9c565b6106d8565b6040516101f39190610a08565b60405180910390f35b34801561020857600080fd5b5061021161078f565b60405161021e91906109cd565b60405180910390f35b34801561023357600080fd5b5061023c610821565b60405161024991906109cd565b60405180910390f35b34801561025e57600080fd5b506102676108af565b60405161027491906109cd565b60405180910390f35b60606000805461028c90610bf8565b80601f01602080910402602001604051908101604052809291908181526020018280546102b890610bf8565b80156103055780601f106102da57610100808354040283529160200191610305565b820191906000526020600020905b8154815290600101906020018083116102e857829003601f168201915b5050505050905090565b6000600580549050905090565b8173ffffffffffffffffffffffffffffffffffffffff16600073ffffffffffffffffffffffffffffffffffffffff160361038b576040517f08c379a000000000000000000000000000000000000000000000000000000000815260040161038290610c9b565b60405180910390fd5b8273ffffffffffffffffffffffffffffffffffffffff166103ab82610627565b73ffffffffffffffffffffffffffffffffffffffff1614610401576040517f08c379a00000000000000000000000000000000000000000000000000000000081526004016103f890610d2d565b60405180910390fd5b6001600360008473ffffffffffffffffffffffffffffffffffffffff1673ffffffffffffffffffffffffffffffffffffffff16815260200190815260200160002060008282546104519190610d7c565b925050819055506001600360008573ffffffffffffffffffffffffffffffffffffffff1673ffffffffffffffffffffffffffffffffffffffff16815260200190815260200160002060008282546104a89190610db0565b92505081905550816002600083815260200190815260200160002060006101000a81548173ffffffffffffffffffffffffffffffffffffffff021916908373ffffffffffffffffffffffffffffffffffffffff160217905550505050565b6000610511836106d8565b8210610552576040517f08c379a000000000000000000000000000000000000000000000000000000000815260040161054990610e30565b60405180910390fd5b600760008473ffffffffffffffffffffffffffffffffffffffff1673ffffffffffffffffffffffffffffffffffffffff16815260200190815260200160002082815481106105a3576105a2610e50565b5b9060005260206000200154905092915050565b60006105c061030f565b8210610601576040517f08c379a00000000000000000000000000000000000000000000000000000000081526004016105f890610ecb565b60405180910390fd5b6005828154811061061557610614610e50565b5b90600052602060002001549050919050565b6000806002600084815260200190815260200160002060009054906101000a900473ffffffffffffffffffffffffffffffffffffffff169050600073ffffffffffffffffffffffffffffffffffffffff168173ffffffffffffffffffffffffffffffffffffffff16036106cf576040517f08c379a00000000000000000000000000000000000000000000000000000000081526004016106c690610f5d565b60405180910390fd5b80915050919050565b60008073ffffffffffffffffffffffffffffffffffffffff168273ffffffffffffffffffffffffffffffffffffffff1603610748576040517f08c379a000000000000000000000000000000000000000000000000000000000815260040161073f90610f5d565b60405180910390fd5b600360008373ffffffffffffffffffffffffffffffffffffffff1673ffffffffffffffffffffffffffffffffffffffff168152602001908152602001600020549050919050565b60606001805461079e90610bf8565b80601f01602080910402602001604051908101604052809291908181526020018280546107ca90610bf8565b80156108175780601f106107ec57610100808354040283529160200191610817565b820191906000526020600020905b8154815290600101906020018083116107fa57829003601f168201915b5050505050905090565b6001805461082e90610bf8565b80601f016020809104026020016040519081016040528092919081815260200182805461085a90610bf8565b80156108a75780601f1061087c576101008083540402835291602001916108a7565b820191906000526020600020905b81548152906001019060200180831161088a57829003601f168201915b505050505081565b600080546108bc90610bf8565b80601f01602080910402602001604051908101604052809291908181526020018280546108e890610bf8565b80156109355780601f1061090a57610100808354040283529160200191610935565b820191906000526020600020905b81548152906001019060200180831161091857829003601f168201915b505050505081565b600081519050919050565b600082825260208201905092915050565b60005b8381101561097757808201518184015260208101905061095c565b60008484015250505050565b6000601f19601f8301169050919050565b600061099f8261093d565b6109a98185610948565b93506109b9818560208601610959565b6109c281610983565b840191505092915050565b600060208201905081810360008301526109e78184610994565b905092915050565b6000819050919050565b610a02816109ef565b82525050565b6000602082019050610a1d60008301846109f9565b92915050565b600080fd5b600073ffffffffffffffffffffffffffffffffffffffff82169050919050565b6000610a5382610a28565b9050919050565b610a6381610a48565b8114610a6e57600080fd5b50565b600081359050610a8081610a5a565b92915050565b610a8f816109ef565b8114610a9a57600080fd5b50565b600081359050610aac81610a86565b92915050565b600080600060608486031215610acb57610aca610a23565b5b6000610ad986828701610a71565b9350506020610aea86828701610a71565b9250506040610afb86828701610a9d565b9150509250925092565b60008060408385031215610b1c57610b1b610a23565b5b6000610b2a85828601610a71565b9250506020610b3b85828601610a9d565b9150509250929050565b600060208284031215610b5b57610b5a610a23565b5b6000610b6984828501610a9d565b91505092915050565b610b7b81610a48565b82525050565b6000602082019050610b966000830184610b72565b92915050565b600060208284031215610bb257610bb1610a23565b5b6000610bc084828501610a71565b91505092915050565b7f4e487b7100000000000000000000000000000000000000000000000000000000600052602260045260246000fd5b60006002820490506001821680610c1057607f821691505b602082108103610c2357610c22610bc9565b5b50919050565b7f4572726f722d455243373231207472616e736665722066726f6d20746f20746860008201527f65207a65726f2061646472657373210000000000000000000000000000000000602082015250565b6000610c85602f83610948565b9150610c9082610c29565b604082019050919050565b60006020820190508181036000830152610cb481610c78565b9050919050565b7f547279696e6720746f207472616e736665722074686520746f6b656e2066726f60008201527f6d206164647265737320646f6573206e6f74206f776e21000000000000000000602082015250565b6000610d17603783610948565b9150610d2282610cbb565b604082019050919050565b60006020820190508181036000830152610d4681610d0a565b9050919050565b7f4e487b7100000000000000000000000000000000000000000000000000000000600052601160045260246000fd5b6000610d87826109ef565b9150610d92836109ef565b9250828201905080821115610daa57610da9610d4d565b5b92915050565b6000610dbb826109ef565b9150610dc6836109ef565b9250828203905081811115610dde57610ddd610d4d565b5b92915050565b7f4f776e657220496e646578206f7574206f6620626f756e647321000000000000600082015250565b6000610e1a601a83610948565b9150610e2582610de4565b602082019050919050565b60006020820190508181036000830152610e4981610e0d565b9050919050565b7f4e487b7100000000000000000000000000000000000000000000000000000000600052603260045260246000fd5b7f476c6f62616c20496e646578206f7574206f6620626f756e6473210000000000600082015250565b6000610eb5601b83610948565b9150610ec082610e7f565b602082019050919050565b60006020820190508181036000830152610ee481610ea8565b9050919050565b7f4f776e657220717565727920666f72206e6f6e2d6578697374656e7420746f6b60008201527f656e000000000000000000000000000000000000000000000000000000000000602082015250565b6000610f47602283610948565b9150610f5282610eeb565b604082019050919050565b60006020820190508181036000830152610f7681610f3a565b905091905056fea2646970667358221220406437c9868f847f32142978ad7b49d4905539b0545b106ffd675475c496651564736f6c63430008100033",
  "immutableReferences": {},
  "source": "//SPDX-License-Identifier: MIT\npragma solidity ^0.8.16;\n\nimport './ERC721Metadata.sol';\nimport './ERC721Enumerable.sol';\n\ncontract ERC721Connector is ERC721Metadata,ERC721Enumerable{\n    //We deploy connector right away \n    //We want to carry the metadata info over\n    constructor(string memory name,string memory symbol) ERC721Metadata(name,symbol){\n  }\n}",
  "sourcePath": "/home/user/nft-marketplace-starter-kit/src/contracts/ERC721Connector.sol",
  "compiler": {
    "name": "solc",
    "version": "0.8.16+commit.07a7930e.Emscripten.clang"
  },
  "schemaVersion": "3.4.8",
  "updatedAt": "2022-08-24T06:57:42.393Z",
  "devdoc": {
    "kind": "dev",
    "methods": {},
    "version": 1
  },
  "userdoc": {
    "kind": "user",
    "methods": {},
    "version": 1
  }
}