{
  "contractName": "ERC721",
  "abi": [
    {
      "anonymous": false,
      "inputs": [
        {
          "indexed": true,
          "internalType": "address",
          "name": "from",
          "type": "address"
        },
        {
          "indexed": true,
          "internalType": "address",
          "name": "to",
          "type": "address"
        },
        {
          "indexed": true,
          "internalType": "uint256",
          "name": "tokenID",
          "type": "uint256"
        }
      ],
      "name": "Transfer",
      "type": "event"
    },
    {
      "inputs": [
        {
          "internalType": "address",
          "name": "_owner",
          "type": "address"
        }
      ],
      "name": "balanceOf",
      "outputs": [
        {
          "internalType": "uint256",
          "name": "",
          "type": "uint256"
        }
      ],
      "stateMutability": "view",
      "type": "function"
    },
    {
      "inputs": [
        {
          "internalType": "uint256",
          "name": "_tokenId",
          "type": "uint256"
        }
      ],
      "name": "ownerOf",
      "outputs": [
        {
          "internalType": "address",
          "name": "",
          "type": "address"
        }
      ],
      "stateMutability": "view",
      "type": "function"
    }
  ],
  "bytecode": "0x608060405234801561001057600080fd5b50610422806100206000396000f3fe608060405234801561001057600080fd5b50600436106100365760003560e01c80636352211e1461003b57806370a082311461006b575b600080fd5b6100556004803603810190610050919061023d565b61009b565b60405161006291906102ab565b60405180910390f35b610085600480360381019061008091906102f2565b61014b565b604051610092919061032e565b60405180910390f35b60008060008084815260200190815260200160002060009054906101000a900473ffffffffffffffffffffffffffffffffffffffff169050600073ffffffffffffffffffffffffffffffffffffffff168173ffffffffffffffffffffffffffffffffffffffff1603610142576040517f08c379a0000000000000000000000000000000000000000000000000000000008152600401610139906103cc565b60405180910390fd5b80915050919050565b60008073ffffffffffffffffffffffffffffffffffffffff168273ffffffffffffffffffffffffffffffffffffffff16036101bb576040517f08c379a00000000000000000000000000000000000000000000000000000000081526004016101b2906103cc565b60405180910390fd5b600160008373ffffffffffffffffffffffffffffffffffffffff1673ffffffffffffffffffffffffffffffffffffffff168152602001908152602001600020549050919050565b600080fd5b6000819050919050565b61021a81610207565b811461022557600080fd5b50565b60008135905061023781610211565b92915050565b60006020828403121561025357610252610202565b5b600061026184828501610228565b91505092915050565b600073ffffffffffffffffffffffffffffffffffffffff82169050919050565b60006102958261026a565b9050919050565b6102a58161028a565b82525050565b60006020820190506102c0600083018461029c565b92915050565b6102cf8161028a565b81146102da57600080fd5b50565b6000813590506102ec816102c6565b92915050565b60006020828403121561030857610307610202565b5b6000610316848285016102dd565b91505092915050565b61032881610207565b82525050565b6000602082019050610343600083018461031f565b92915050565b600082825260208201905092915050565b7f4f776e657220717565727920666f72206e6f6e2d6578697374656e7420746f6b60008201527f656e000000000000000000000000000000000000000000000000000000000000602082015250565b60006103b6602283610349565b91506103c18261035a565b604082019050919050565b600060208201905081810360008301526103e5816103a9565b905091905056fea264697066735822122086f5a0e72661711bbe88f14d1227254811dd536d0b425cdf220cea08c3a055c864736f6c63430008100033",
  "immutableReferences": {},
  "source": "//SPDX-License-Identifier: MIT\npragma solidity ^0.8.16;\n\ncontract ERC721{\n   \n   //create a event \n    event Transfer(address indexed from,\n                 address indexed to,\n                 uint indexed tokenID);\n\n    //mapping from tokenID to the owner\n    mapping(uint=>address) private _tokenOwner;\n    //mapping from owner to number of owned tokens\n    mapping(address=>uint) private _OwnedTokenCount;\n\n    function balanceOf(address _owner) public view returns(uint){\n        require(_owner!=address(0),\"Owner query for non-existent token\");\n        return _OwnedTokenCount[_owner];\n    }\n\n    function ownerOf(uint _tokenId) external view returns(address){\n        address owner=_tokenOwner[_tokenId];\n        require(owner!=address(0),\"Owner query for non-existent token\");\n        return owner;\n\n    }\n\n    function _exists(uint tokenID) internal view returns(bool){\n        //setting address of nft owner to check the mapping of address \n        //from tokenOwner at the tokenID\n        address owner=_tokenOwner[tokenID];\n        return owner!=address(0);\n    }\n    // minting function\n    function _mint(address to,uint tokenID) internal virtual {\n        //require that the address is not zero.\n        require(to!=address(0),\"ERC721: minting to the zero address.\");\n        //require that the token does not already exist.\n        require(!_exists(tokenID),\"ERC721: Token already exist.\");\n        //we are adding a new address with tokenID for minting\n        _tokenOwner[tokenID]=to;\n        //keep track the each address that is minting and adding the count 1\n        _OwnedTokenCount[to]+=1;\n\n        emit Transfer(address(0), to,tokenID);\n    }\n}",
  "sourcePath": "/home/user/nft-marketplace-starter-kit/src/contracts/ERC721.sol",
  "compiler": {
    "name": "solc",
    "version": "0.8.16+commit.07a7930e.Emscripten.clang"
  },
  "schemaVersion": "3.4.8",
  "updatedAt": "2022-08-12T09:36:33.514Z",
  "devdoc": {
    "kind": "dev",
    "methods": {},
    "version": 1
  },
  "userdoc": {
    "kind": "user",
    "methods": {},
    "version": 1
  }
}