{
  "contractName": "KryptoBirdz",
  "abi": [
    {
      "inputs": [],
      "stateMutability": "nonpayable",
      "type": "constructor"
    },
    {
      "anonymous": false,
      "inputs": [
        {
          "indexed": true,
          "internalType": "address",
          "name": "from",
          "type": "address"
        },
        {
          "indexed": true,
          "internalType": "address",
          "name": "to",
          "type": "address"
        },
        {
          "indexed": true,
          "internalType": "uint256",
          "name": "tokenID",
          "type": "uint256"
        }
      ],
      "name": "Transfer",
      "type": "event"
    },
    {
      "inputs": [
        {
          "internalType": "uint256",
          "name": "",
          "type": "uint256"
        }
      ],
      "name": "Kryptobirds",
      "outputs": [
        {
          "internalType": "string",
          "name": "",
          "type": "string"
        }
      ],
      "stateMutability": "view",
      "type": "function",
      "constant": true
    },
    {
      "inputs": [],
      "name": "_name",
      "outputs": [
        {
          "internalType": "string",
          "name": "",
          "type": "string"
        }
      ],
      "stateMutability": "view",
      "type": "function",
      "constant": true
    },
    {
      "inputs": [],
      "name": "_symbol",
      "outputs": [
        {
          "internalType": "string",
          "name": "",
          "type": "string"
        }
      ],
      "stateMutability": "view",
      "type": "function",
      "constant": true
    },
    {
      "inputs": [
        {
          "internalType": "address",
          "name": "_owner",
          "type": "address"
        }
      ],
      "name": "balanceOf",
      "outputs": [
        {
          "internalType": "uint256",
          "name": "",
          "type": "uint256"
        }
      ],
      "stateMutability": "view",
      "type": "function",
      "constant": true
    },
    {
      "inputs": [],
      "name": "name",
      "outputs": [
        {
          "internalType": "string",
          "name": "",
          "type": "string"
        }
      ],
      "stateMutability": "view",
      "type": "function",
      "constant": true
    },
    {
      "inputs": [
        {
          "internalType": "uint256",
          "name": "_tokenId",
          "type": "uint256"
        }
      ],
      "name": "ownerOf",
      "outputs": [
        {
          "internalType": "address",
          "name": "",
          "type": "address"
        }
      ],
      "stateMutability": "view",
      "type": "function",
      "constant": true
    },
    {
      "inputs": [],
      "name": "symbol",
      "outputs": [
        {
          "internalType": "string",
          "name": "",
          "type": "string"
        }
      ],
      "stateMutability": "view",
      "type": "function",
      "constant": true
    },
    {
      "inputs": [
        {
          "internalType": "uint256",
          "name": "index",
          "type": "uint256"
        }
      ],
      "name": "tokenByIndex",
      "outputs": [
        {
          "internalType": "uint256",
          "name": "",
          "type": "uint256"
        }
      ],
      "stateMutability": "view",
      "type": "function",
      "constant": true
    },
    {
      "inputs": [
        {
          "internalType": "address",
          "name": "owner",
          "type": "address"
        },
        {
          "internalType": "uint256",
          "name": "index",
          "type": "uint256"
        }
      ],
      "name": "tokenOfOwnerByIndex",
      "outputs": [
        {
          "internalType": "uint256",
          "name": "",
          "type": "uint256"
        }
      ],
      "stateMutability": "view",
      "type": "function",
      "constant": true
    },
    {
      "inputs": [],
      "name": "totalSupply",
      "outputs": [
        {
          "internalType": "uint256",
          "name": "",
          "type": "uint256"
        }
      ],
      "stateMutability": "view",
      "type": "function",
      "constant": true
    },
    {
      "inputs": [
        {
          "internalType": "string",
          "name": "_Kryptobird",
          "type": "string"
        }
      ],
      "name": "mint",
      "outputs": [],
      "stateMutability": "nonpayable",
      "type": "function"
    }
  ],
  "bytecode": "0x60806040523480156200001157600080fd5b506040518060400160405280600b81526020017f4b727970746f426972647a0000000000000000000000000000000000000000008152506040518060400160405280600581526020017f4b424952440000000000000000000000000000000000000000000000000000008152508181816000908162000091919062000328565b508060019081620000a3919062000328565b50505050506200040f565b600081519050919050565b7f4e487b7100000000000000000000000000000000000000000000000000000000600052604160045260246000fd5b7f4e487b7100000000000000000000000000000000000000000000000000000000600052602260045260246000fd5b600060028204905060018216806200013057607f821691505b602082108103620001465762000145620000e8565b5b50919050565b60008190508160005260206000209050919050565b60006020601f8301049050919050565b600082821b905092915050565b600060088302620001b07fffffffffffffffffffffffffffffffffffffffffffffffffffffffffffffffff8262000171565b620001bc868362000171565b95508019841693508086168417925050509392505050565b6000819050919050565b6000819050919050565b60006200020962000203620001fd84620001d4565b620001de565b620001d4565b9050919050565b6000819050919050565b6200022583620001e8565b6200023d620002348262000210565b8484546200017e565b825550505050565b600090565b6200025462000245565b620002618184846200021a565b505050565b5b8181101562000289576200027d6000826200024a565b60018101905062000267565b5050565b601f821115620002d857620002a2816200014c565b620002ad8462000161565b81016020851015620002bd578190505b620002d5620002cc8562000161565b83018262000266565b50505b505050565b600082821c905092915050565b6000620002fd60001984600802620002dd565b1980831691505092915050565b6000620003188383620002ea565b9150826002028217905092915050565b6200033382620000ae565b67ffffffffffffffff8111156200034f576200034e620000b9565b5b6200035b825462000117565b620003688282856200028d565b600060209050601f831160018114620003a057600084156200038b578287015190505b6200039785826200030a565b86555062000407565b601f198416620003b0866200014c565b60005b82811015620003da57848901518255600182019150602085019450602081019050620003b3565b86831015620003fa5784890151620003f6601f891682620002ea565b8355505b6001600288020188555050505b505050505050565b61171c806200041f6000396000f3fe608060405234801561001057600080fd5b50600436106100a95760003560e01c806370a082311161007157806370a082311461017a57806395d89b41146101aa578063b09f1266146101c8578063d28d8852146101e6578063d85d3d2714610204578063fd2d686d14610220576100a9565b806306fdde03146100ae57806318160ddd146100cc5780632f745c59146100ea5780634f6ccce71461011a5780636352211e1461014a575b600080fd5b6100b6610250565b6040516100c39190610cbf565b60405180910390f35b6100d46102e2565b6040516100e19190610cfa565b60405180910390f35b61010460048036038101906100ff9190610db3565b6102ef565b6040516101119190610cfa565b60405180910390f35b610134600480360381019061012f9190610df3565b61039f565b6040516101419190610cfa565b60405180910390f35b610164600480360381019061015f9190610df3565b610410565b6040516101719190610e2f565b60405180910390f35b610194600480360381019061018f9190610e4a565b6104c1565b6040516101a19190610cfa565b60405180910390f35b6101b2610578565b6040516101bf9190610cbf565b60405180910390f35b6101d061060a565b6040516101dd9190610cbf565b60405180910390f35b6101ee610698565b6040516101fb9190610cbf565b60405180910390f35b61021e60048036038101906102199190610fac565b610726565b005b61023a60048036038101906102359190610df3565b610822565b6040516102479190610cbf565b60405180910390f35b60606000805461025f90611024565b80601f016020809104026020016040519081016040528092919081815260200182805461028b90611024565b80156102d85780601f106102ad576101008083540402835291602001916102d8565b820191906000526020600020905b8154815290600101906020018083116102bb57829003601f168201915b5050505050905090565b6000600480549050905090565b60006102fa836104c1565b821061033b576040517f08c379a0000000000000000000000000000000000000000000000000000000008152600401610332906110a1565b60405180910390fd5b600660008473ffffffffffffffffffffffffffffffffffffffff1673ffffffffffffffffffffffffffffffffffffffff168152602001908152602001600020828154811061038c5761038b6110c1565b5b9060005260206000200154905092915050565b60006103a96102e2565b82106103ea576040517f08c379a00000000000000000000000000000000000000000000000000000000081526004016103e19061113c565b60405180910390fd5b600482815481106103fe576103fd6110c1565b5b90600052602060002001549050919050565b6000806002600084815260200190815260200160002060009054906101000a900473ffffffffffffffffffffffffffffffffffffffff169050600073ffffffffffffffffffffffffffffffffffffffff168173ffffffffffffffffffffffffffffffffffffffff16036104b8576040517f08c379a00000000000000000000000000000000000000000000000000000000081526004016104af906111ce565b60405180910390fd5b80915050919050565b60008073ffffffffffffffffffffffffffffffffffffffff168273ffffffffffffffffffffffffffffffffffffffff1603610531576040517f08c379a0000000000000000000000000000000000000000000000000000000008152600401610528906111ce565b60405180910390fd5b600360008373ffffffffffffffffffffffffffffffffffffffff1673ffffffffffffffffffffffffffffffffffffffff168152602001908152602001600020549050919050565b60606001805461058790611024565b80601f01602080910402602001604051908101604052809291908181526020018280546105b390611024565b80156106005780601f106105d557610100808354040283529160200191610600565b820191906000526020600020905b8154815290600101906020018083116105e357829003601f168201915b5050505050905090565b6001805461061790611024565b80601f016020809104026020016040519081016040528092919081815260200182805461064390611024565b80156106905780601f1061066557610100808354040283529160200191610690565b820191906000526020600020905b81548152906001019060200180831161067357829003601f168201915b505050505081565b600080546106a590611024565b80601f01602080910402602001604051908101604052809291908181526020018280546106d190611024565b801561071e5780601f106106f35761010080835404028352916020019161071e565b820191906000526020600020905b81548152906001019060200180831161070157829003601f168201915b505050505081565b600981604051610736919061122a565b908152602001604051809103902060009054906101000a900460ff1615610792576040517f08c379a0000000000000000000000000000000000000000000000000000000008152600401610789906112b3565b60405180910390fd5b6008819080600181540180825580915050600190039060005260206000200160009091909190915090816107c6919061147f565b50600060016008805490506107db9190611580565b90506107e733826108ce565b60016009836040516107f9919061122a565b908152602001604051809103902060006101000a81548160ff0219169083151502179055505050565b6008818154811061083257600080fd5b90600052602060002001600091509050805461084d90611024565b80601f016020809104026020016040519081016040528092919081815260200182805461087990611024565b80156108c65780601f1061089b576101008083540402835291602001916108c6565b820191906000526020600020905b8154815290600101906020018083116108a957829003601f168201915b505050505081565b6108d882826108ef565b6108e181610ab0565b6108eb8282610af9565b5050565b600073ffffffffffffffffffffffffffffffffffffffff168273ffffffffffffffffffffffffffffffffffffffff160361095e576040517f08c379a000000000000000000000000000000000000000000000000000000000815260040161095590611626565b60405180910390fd5b61096781610bbd565b156109a7576040517f08c379a000000000000000000000000000000000000000000000000000000000815260040161099e90611692565b60405180910390fd5b816002600083815260200190815260200160002060006101000a81548173ffffffffffffffffffffffffffffffffffffffff021916908373ffffffffffffffffffffffffffffffffffffffff1602179055506001600360008473ffffffffffffffffffffffffffffffffffffffff1673ffffffffffffffffffffffffffffffffffffffff1681526020019081526020016000206000828254610a4991906116b2565b92505081905550808273ffffffffffffffffffffffffffffffffffffffff16600073ffffffffffffffffffffffffffffffffffffffff167fddf252ad1be2c89b69c2b068fc378daa952ba7f163c4a11628f55a4df523b3ef60405160405180910390a45050565b6004805490506005600083815260200190815260200160002081905550600481908060018154018082558091505060019003906000526020600020016000909190919091505550565b600660008373ffffffffffffffffffffffffffffffffffffffff1673ffffffffffffffffffffffffffffffffffffffff168152602001908152602001600020805490506007600083815260200190815260200160002081905550600660008373ffffffffffffffffffffffffffffffffffffffff1673ffffffffffffffffffffffffffffffffffffffff1681526020019081526020016000208190806001815401808255809150506001900390600052602060002001600090919091909150555050565b6000806002600084815260200190815260200160002060009054906101000a900473ffffffffffffffffffffffffffffffffffffffff169050600073ffffffffffffffffffffffffffffffffffffffff168173ffffffffffffffffffffffffffffffffffffffff161415915050919050565b600081519050919050565b600082825260208201905092915050565b60005b83811015610c69578082015181840152602081019050610c4e565b60008484015250505050565b6000601f19601f8301169050919050565b6000610c9182610c2f565b610c9b8185610c3a565b9350610cab818560208601610c4b565b610cb481610c75565b840191505092915050565b60006020820190508181036000830152610cd98184610c86565b905092915050565b6000819050919050565b610cf481610ce1565b82525050565b6000602082019050610d0f6000830184610ceb565b92915050565b6000604051905090565b600080fd5b600080fd5b600073ffffffffffffffffffffffffffffffffffffffff82169050919050565b6000610d5482610d29565b9050919050565b610d6481610d49565b8114610d6f57600080fd5b50565b600081359050610d8181610d5b565b92915050565b610d9081610ce1565b8114610d9b57600080fd5b50565b600081359050610dad81610d87565b92915050565b60008060408385031215610dca57610dc9610d1f565b5b6000610dd885828601610d72565b9250506020610de985828601610d9e565b9150509250929050565b600060208284031215610e0957610e08610d1f565b5b6000610e1784828501610d9e565b91505092915050565b610e2981610d49565b82525050565b6000602082019050610e446000830184610e20565b92915050565b600060208284031215610e6057610e5f610d1f565b5b6000610e6e84828501610d72565b91505092915050565b600080fd5b600080fd5b7f4e487b7100000000000000000000000000000000000000000000000000000000600052604160045260246000fd5b610eb982610c75565b810181811067ffffffffffffffff82111715610ed857610ed7610e81565b5b80604052505050565b6000610eeb610d15565b9050610ef78282610eb0565b919050565b600067ffffffffffffffff821115610f1757610f16610e81565b5b610f2082610c75565b9050602081019050919050565b82818337600083830152505050565b6000610f4f610f4a84610efc565b610ee1565b905082815260208101848484011115610f6b57610f6a610e7c565b5b610f76848285610f2d565b509392505050565b600082601f830112610f9357610f92610e77565b5b8135610fa3848260208601610f3c565b91505092915050565b600060208284031215610fc257610fc1610d1f565b5b600082013567ffffffffffffffff811115610fe057610fdf610d24565b5b610fec84828501610f7e565b91505092915050565b7f4e487b7100000000000000000000000000000000000000000000000000000000600052602260045260246000fd5b6000600282049050600182168061103c57607f821691505b60208210810361104f5761104e610ff5565b5b50919050565b7f4f776e657220496e646578206f7574206f6620626f756e647321000000000000600082015250565b600061108b601a83610c3a565b915061109682611055565b602082019050919050565b600060208201905081810360008301526110ba8161107e565b9050919050565b7f4e487b7100000000000000000000000000000000000000000000000000000000600052603260045260246000fd5b7f476c6f62616c20496e646578206f7574206f6620626f756e6473210000000000600082015250565b6000611126601b83610c3a565b9150611131826110f0565b602082019050919050565b6000602082019050818103600083015261115581611119565b9050919050565b7f4f776e657220717565727920666f72206e6f6e2d6578697374656e7420746f6b60008201527f656e000000000000000000000000000000000000000000000000000000000000602082015250565b60006111b8602283610c3a565b91506111c38261115c565b604082019050919050565b600060208201905081810360008301526111e7816111ab565b9050919050565b600081905092915050565b600061120482610c2f565b61120e81856111ee565b935061121e818560208601610c4b565b80840191505092915050565b600061123682846111f9565b915081905092915050565b7f4572726f72202d204b727970746f6269726420616c726561647920657869737460008201527f2100000000000000000000000000000000000000000000000000000000000000602082015250565b600061129d602183610c3a565b91506112a882611241565b604082019050919050565b600060208201905081810360008301526112cc81611290565b9050919050565b60008190508160005260206000209050919050565b60006020601f8301049050919050565b600082821b905092915050565b6000600883026113357fffffffffffffffffffffffffffffffffffffffffffffffffffffffffffffffff826112f8565b61133f86836112f8565b95508019841693508086168417925050509392505050565b6000819050919050565b600061137c61137761137284610ce1565b611357565b610ce1565b9050919050565b6000819050919050565b61139683611361565b6113aa6113a282611383565b848454611305565b825550505050565b600090565b6113bf6113b2565b6113ca81848461138d565b505050565b5b818110156113ee576113e36000826113b7565b6001810190506113d0565b5050565b601f82111561143357611404816112d3565b61140d846112e8565b8101602085101561141c578190505b611430611428856112e8565b8301826113cf565b50505b505050565b600082821c905092915050565b600061145660001984600802611438565b1980831691505092915050565b600061146f8383611445565b9150826002028217905092915050565b61148882610c2f565b67ffffffffffffffff8111156114a1576114a0610e81565b5b6114ab8254611024565b6114b68282856113f2565b600060209050601f8311600181146114e957600084156114d7578287015190505b6114e18582611463565b865550611549565b601f1984166114f7866112d3565b60005b8281101561151f578489015182556001820191506020850194506020810190506114fa565b8683101561153c5784890151611538601f891682611445565b8355505b6001600288020188555050505b505050505050565b7f4e487b7100000000000000000000000000000000000000000000000000000000600052601160045260246000fd5b600061158b82610ce1565b915061159683610ce1565b92508282039050818111156115ae576115ad611551565b5b92915050565b7f4552433732313a206d696e74696e6720746f20746865207a65726f206164647260008201527f6573732e00000000000000000000000000000000000000000000000000000000602082015250565b6000611610602483610c3a565b915061161b826115b4565b604082019050919050565b6000602082019050818103600083015261163f81611603565b9050919050565b7f4552433732313a20546f6b656e20616c72656164792065786973742e00000000600082015250565b600061167c601c83610c3a565b915061168782611646565b602082019050919050565b600060208201905081810360008301526116ab8161166f565b9050919050565b60006116bd82610ce1565b91506116c883610ce1565b92508282019050808211156116e0576116df611551565b5b9291505056fea2646970667358221220a0d1cb58ec8817d0404ce049787455da1e39a305f64829ef8fbc189f74f45f8b64736f6c63430008100033",
  "immutableReferences": {},
  "source": "//SPDX-License-Identifier: MIT\npragma solidity ^0.8.16;\nimport './ERC721Connector.sol';\ncontract KryptoBirdz is ERC721Connector{\n\n    //Create an Array\n    string[] public Kryptobirds;\n    mapping(string =>bool) _KryptobirdsExists;\n\n    function mint(string memory _Kryptobird) public{\n        require(!_KryptobirdsExists[_Kryptobird],\"Error - Kryptobird already exist!\");\n        Kryptobirds.push(_Kryptobird);\n        uint _id=Kryptobirds.length-1;\n        _mint(msg.sender,_id);\n        _KryptobirdsExists[_Kryptobird]=true;\n    }\n\n    constructor() ERC721Connector(\"KryptoBirdz\",\"KBIRD\"){\n   }\n}\n\n\n",
  "sourcePath": "/home/user/nft-marketplace-starter-kit/src/contracts/KryptoBirdz.sol",
  "compiler": {
    "name": "solc",
    "version": "0.8.16+commit.07a7930e.Emscripten.clang"
  },
  "schemaVersion": "3.4.8",
  "updatedAt": "2022-08-12T12:17:15.591Z",
  "networkType": "ethereum",
  "devdoc": {
    "kind": "dev",
    "methods": {},
    "version": 1
  },
  "userdoc": {
    "kind": "user",
    "methods": {},
    "version": 1
  }
}