{
  "contractName": "KryptoBirdz",
  "abi": [
    {
      "inputs": [],
      "stateMutability": "nonpayable",
      "type": "constructor"
    },
    {
      "anonymous": false,
      "inputs": [
        {
          "indexed": true,
          "internalType": "address",
          "name": "from",
          "type": "address"
        },
        {
          "indexed": true,
          "internalType": "address",
          "name": "to",
          "type": "address"
        },
        {
          "indexed": true,
          "internalType": "uint256",
          "name": "tokenID",
          "type": "uint256"
        }
      ],
      "name": "Transfer",
      "type": "event"
    },
    {
      "inputs": [
        {
          "internalType": "uint256",
          "name": "",
          "type": "uint256"
        }
      ],
      "name": "Kryptobirds",
      "outputs": [
        {
          "internalType": "string",
          "name": "",
          "type": "string"
        }
      ],
      "stateMutability": "view",
      "type": "function",
      "constant": true
    },
    {
      "inputs": [],
      "name": "_name",
      "outputs": [
        {
          "internalType": "string",
          "name": "",
          "type": "string"
        }
      ],
      "stateMutability": "view",
      "type": "function",
      "constant": true
    },
    {
      "inputs": [],
      "name": "_symbol",
      "outputs": [
        {
          "internalType": "string",
          "name": "",
          "type": "string"
        }
      ],
      "stateMutability": "view",
      "type": "function",
      "constant": true
    },
    {
      "inputs": [
        {
          "internalType": "address",
          "name": "_owner",
          "type": "address"
        }
      ],
      "name": "balanceOf",
      "outputs": [
        {
          "internalType": "uint256",
          "name": "",
          "type": "uint256"
        }
      ],
      "stateMutability": "view",
      "type": "function",
      "constant": true
    },
    {
      "inputs": [],
      "name": "name",
      "outputs": [
        {
          "internalType": "string",
          "name": "",
          "type": "string"
        }
      ],
      "stateMutability": "view",
      "type": "function",
      "constant": true
    },
    {
      "inputs": [
        {
          "internalType": "uint256",
          "name": "_tokenId",
          "type": "uint256"
        }
      ],
      "name": "ownerOf",
      "outputs": [
        {
          "internalType": "address",
          "name": "",
          "type": "address"
        }
      ],
      "stateMutability": "view",
      "type": "function",
      "constant": true
    },
    {
      "inputs": [],
      "name": "symbol",
      "outputs": [
        {
          "internalType": "string",
          "name": "",
          "type": "string"
        }
      ],
      "stateMutability": "view",
      "type": "function",
      "constant": true
    },
    {
      "inputs": [
        {
          "internalType": "uint256",
          "name": "index",
          "type": "uint256"
        }
      ],
      "name": "tokenByIndex",
      "outputs": [
        {
          "internalType": "uint256",
          "name": "",
          "type": "uint256"
        }
      ],
      "stateMutability": "view",
      "type": "function",
      "constant": true
    },
    {
      "inputs": [
        {
          "internalType": "address",
          "name": "owner",
          "type": "address"
        },
        {
          "internalType": "uint256",
          "name": "index",
          "type": "uint256"
        }
      ],
      "name": "tokenOfOwnerByIndex",
      "outputs": [
        {
          "internalType": "uint256",
          "name": "",
          "type": "uint256"
        }
      ],
      "stateMutability": "view",
      "type": "function",
      "constant": true
    },
    {
      "inputs": [],
      "name": "totalSupply",
      "outputs": [
        {
          "internalType": "uint256",
          "name": "",
          "type": "uint256"
        }
      ],
      "stateMutability": "view",
      "type": "function",
      "constant": true
    },
    {
      "inputs": [
        {
          "internalType": "address",
          "name": "_from",
          "type": "address"
        },
        {
          "internalType": "address",
          "name": "_to",
          "type": "address"
        },
        {
          "internalType": "uint256",
          "name": "_tokenID",
          "type": "uint256"
        }
      ],
      "name": "transferFrom",
      "outputs": [],
      "stateMutability": "payable",
      "type": "function",
      "payable": true
    },
    {
      "inputs": [
        {
          "internalType": "string",
          "name": "_Kryptobird",
          "type": "string"
        }
      ],
      "name": "mint",
      "outputs": [],
      "stateMutability": "nonpayable",
      "type": "function"
    }
  ],
  "bytecode": "0x60806040523480156200001157600080fd5b506040518060400160405280600b81526020017f4b727970746f426972647a0000000000000000000000000000000000000000008152506040518060400160405280600581526020017f4b424952440000000000000000000000000000000000000000000000000000008152508181816000908162000091919062000328565b508060019081620000a3919062000328565b50505050506200040f565b600081519050919050565b7f4e487b7100000000000000000000000000000000000000000000000000000000600052604160045260246000fd5b7f4e487b7100000000000000000000000000000000000000000000000000000000600052602260045260246000fd5b600060028204905060018216806200013057607f821691505b602082108103620001465762000145620000e8565b5b50919050565b60008190508160005260206000209050919050565b60006020601f8301049050919050565b600082821b905092915050565b600060088302620001b07fffffffffffffffffffffffffffffffffffffffffffffffffffffffffffffffff8262000171565b620001bc868362000171565b95508019841693508086168417925050509392505050565b6000819050919050565b6000819050919050565b60006200020962000203620001fd84620001d4565b620001de565b620001d4565b9050919050565b6000819050919050565b6200022583620001e8565b6200023d620002348262000210565b8484546200017e565b825550505050565b600090565b6200025462000245565b620002618184846200021a565b505050565b5b8181101562000289576200027d6000826200024a565b60018101905062000267565b5050565b601f821115620002d857620002a2816200014c565b620002ad8462000161565b81016020851015620002bd578190505b620002d5620002cc8562000161565b83018262000266565b50505b505050565b600082821c905092915050565b6000620002fd60001984600802620002dd565b1980831691505092915050565b6000620003188383620002ea565b9150826002028217905092915050565b6200033382620000ae565b67ffffffffffffffff8111156200034f576200034e620000b9565b5b6200035b825462000117565b620003688282856200028d565b600060209050601f831160018114620003a057600084156200038b578287015190505b6200039785826200030a565b86555062000407565b601f198416620003b0866200014c565b60005b82811015620003da57848901518255600182019150602085019450602081019050620003b3565b86831015620003fa5784890151620003f6601f891682620002ea565b8355505b6001600288020188555050505b505050505050565b611b26806200041f6000396000f3fe6080604052600436106100a75760003560e01c806370a082311161006457806370a08231146101d557806395d89b4114610212578063b09f12661461023d578063d28d885214610268578063d85d3d2714610293578063fd2d686d146102bc576100a7565b806306fdde03146100ac57806318160ddd146100d757806323b872dd146101025780632f745c591461011e5780634f6ccce71461015b5780636352211e14610198575b600080fd5b3480156100b857600080fd5b506100c16102f9565b6040516100ce9190610f52565b60405180910390f35b3480156100e357600080fd5b506100ec61038b565b6040516100f99190610f8d565b60405180910390f35b61011c60048036038101906101179190611046565b610398565b005b34801561012a57600080fd5b5061014560048036038101906101409190611099565b610582565b6040516101529190610f8d565b60405180910390f35b34801561016757600080fd5b50610182600480360381019061017d91906110d9565b610632565b60405161018f9190610f8d565b60405180910390f35b3480156101a457600080fd5b506101bf60048036038101906101ba91906110d9565b6106a3565b6040516101cc9190611115565b60405180910390f35b3480156101e157600080fd5b506101fc60048036038101906101f79190611130565b610754565b6040516102099190610f8d565b60405180910390f35b34801561021e57600080fd5b5061022761080b565b6040516102349190610f52565b60405180910390f35b34801561024957600080fd5b5061025261089d565b60405161025f9190610f52565b60405180910390f35b34801561027457600080fd5b5061027d61092b565b60405161028a9190610f52565b60405180910390f35b34801561029f57600080fd5b506102ba60048036038101906102b59190611292565b6109b9565b005b3480156102c857600080fd5b506102e360048036038101906102de91906110d9565b610ab5565b6040516102f09190610f52565b60405180910390f35b6060600080546103089061130a565b80601f01602080910402602001604051908101604052809291908181526020018280546103349061130a565b80156103815780601f1061035657610100808354040283529160200191610381565b820191906000526020600020905b81548152906001019060200180831161036457829003601f168201915b5050505050905090565b6000600580549050905090565b8173ffffffffffffffffffffffffffffffffffffffff16600073ffffffffffffffffffffffffffffffffffffffff1603610407576040517f08c379a00000000000000000000000000000000000000000000000000000000081526004016103fe906113ad565b60405180910390fd5b8273ffffffffffffffffffffffffffffffffffffffff16610427826106a3565b73ffffffffffffffffffffffffffffffffffffffff161461047d576040517f08c379a00000000000000000000000000000000000000000000000000000000081526004016104749061143f565b60405180910390fd5b6001600360008473ffffffffffffffffffffffffffffffffffffffff1673ffffffffffffffffffffffffffffffffffffffff16815260200190815260200160002060008282546104cd919061148e565b925050819055506001600360008573ffffffffffffffffffffffffffffffffffffffff1673ffffffffffffffffffffffffffffffffffffffff168152602001908152602001600020600082825461052491906114c2565b92505081905550816002600083815260200190815260200160002060006101000a81548173ffffffffffffffffffffffffffffffffffffffff021916908373ffffffffffffffffffffffffffffffffffffffff160217905550505050565b600061058d83610754565b82106105ce576040517f08c379a00000000000000000000000000000000000000000000000000000000081526004016105c590611542565b60405180910390fd5b600760008473ffffffffffffffffffffffffffffffffffffffff1673ffffffffffffffffffffffffffffffffffffffff168152602001908152602001600020828154811061061f5761061e611562565b5b9060005260206000200154905092915050565b600061063c61038b565b821061067d576040517f08c379a0000000000000000000000000000000000000000000000000000000008152600401610674906115dd565b60405180910390fd5b6005828154811061069157610690611562565b5b90600052602060002001549050919050565b6000806002600084815260200190815260200160002060009054906101000a900473ffffffffffffffffffffffffffffffffffffffff169050600073ffffffffffffffffffffffffffffffffffffffff168173ffffffffffffffffffffffffffffffffffffffff160361074b576040517f08c379a00000000000000000000000000000000000000000000000000000000081526004016107429061166f565b60405180910390fd5b80915050919050565b60008073ffffffffffffffffffffffffffffffffffffffff168273ffffffffffffffffffffffffffffffffffffffff16036107c4576040517f08c379a00000000000000000000000000000000000000000000000000000000081526004016107bb9061166f565b60405180910390fd5b600360008373ffffffffffffffffffffffffffffffffffffffff1673ffffffffffffffffffffffffffffffffffffffff168152602001908152602001600020549050919050565b60606001805461081a9061130a565b80601f01602080910402602001604051908101604052809291908181526020018280546108469061130a565b80156108935780601f1061086857610100808354040283529160200191610893565b820191906000526020600020905b81548152906001019060200180831161087657829003601f168201915b5050505050905090565b600180546108aa9061130a565b80601f01602080910402602001604051908101604052809291908181526020018280546108d69061130a565b80156109235780601f106108f857610100808354040283529160200191610923565b820191906000526020600020905b81548152906001019060200180831161090657829003601f168201915b505050505081565b600080546109389061130a565b80601f01602080910402602001604051908101604052809291908181526020018280546109649061130a565b80156109b15780601f10610986576101008083540402835291602001916109b1565b820191906000526020600020905b81548152906001019060200180831161099457829003601f168201915b505050505081565b600a816040516109c991906116cb565b908152602001604051809103902060009054906101000a900460ff1615610a25576040517f08c379a0000000000000000000000000000000000000000000000000000000008152600401610a1c90611754565b60405180910390fd5b600981908060018154018082558091505060019003906000526020600020016000909190919091509081610a599190611920565b5060006001600980549050610a6e91906114c2565b9050610a7a3382610b61565b6001600a83604051610a8c91906116cb565b908152602001604051809103902060006101000a81548160ff0219169083151502179055505050565b60098181548110610ac557600080fd5b906000526020600020016000915090508054610ae09061130a565b80601f0160208091040260200160405190810160405280929190818152602001828054610b0c9061130a565b8015610b595780601f10610b2e57610100808354040283529160200191610b59565b820191906000526020600020905b815481529060010190602001808311610b3c57829003601f168201915b505050505081565b610b6b8282610b82565b610b7481610d43565b610b7e8282610d8c565b5050565b600073ffffffffffffffffffffffffffffffffffffffff168273ffffffffffffffffffffffffffffffffffffffff1603610bf1576040517f08c379a0000000000000000000000000000000000000000000000000000000008152600401610be890611a64565b60405180910390fd5b610bfa81610e50565b15610c3a576040517f08c379a0000000000000000000000000000000000000000000000000000000008152600401610c3190611ad0565b60405180910390fd5b816002600083815260200190815260200160002060006101000a81548173ffffffffffffffffffffffffffffffffffffffff021916908373ffffffffffffffffffffffffffffffffffffffff1602179055506001600360008473ffffffffffffffffffffffffffffffffffffffff1673ffffffffffffffffffffffffffffffffffffffff1681526020019081526020016000206000828254610cdc919061148e565b92505081905550808273ffffffffffffffffffffffffffffffffffffffff16600073ffffffffffffffffffffffffffffffffffffffff167fddf252ad1be2c89b69c2b068fc378daa952ba7f163c4a11628f55a4df523b3ef60405160405180910390a45050565b6005805490506006600083815260200190815260200160002081905550600581908060018154018082558091505060019003906000526020600020016000909190919091505550565b600760008373ffffffffffffffffffffffffffffffffffffffff1673ffffffffffffffffffffffffffffffffffffffff168152602001908152602001600020805490506008600083815260200190815260200160002081905550600760008373ffffffffffffffffffffffffffffffffffffffff1673ffffffffffffffffffffffffffffffffffffffff1681526020019081526020016000208190806001815401808255809150506001900390600052602060002001600090919091909150555050565b6000806002600084815260200190815260200160002060009054906101000a900473ffffffffffffffffffffffffffffffffffffffff169050600073ffffffffffffffffffffffffffffffffffffffff168173ffffffffffffffffffffffffffffffffffffffff161415915050919050565b600081519050919050565b600082825260208201905092915050565b60005b83811015610efc578082015181840152602081019050610ee1565b60008484015250505050565b6000601f19601f8301169050919050565b6000610f2482610ec2565b610f2e8185610ecd565b9350610f3e818560208601610ede565b610f4781610f08565b840191505092915050565b60006020820190508181036000830152610f6c8184610f19565b905092915050565b6000819050919050565b610f8781610f74565b82525050565b6000602082019050610fa26000830184610f7e565b92915050565b6000604051905090565b600080fd5b600080fd5b600073ffffffffffffffffffffffffffffffffffffffff82169050919050565b6000610fe782610fbc565b9050919050565b610ff781610fdc565b811461100257600080fd5b50565b60008135905061101481610fee565b92915050565b61102381610f74565b811461102e57600080fd5b50565b6000813590506110408161101a565b92915050565b60008060006060848603121561105f5761105e610fb2565b5b600061106d86828701611005565b935050602061107e86828701611005565b925050604061108f86828701611031565b9150509250925092565b600080604083850312156110b0576110af610fb2565b5b60006110be85828601611005565b92505060206110cf85828601611031565b9150509250929050565b6000602082840312156110ef576110ee610fb2565b5b60006110fd84828501611031565b91505092915050565b61110f81610fdc565b82525050565b600060208201905061112a6000830184611106565b92915050565b60006020828403121561114657611145610fb2565b5b600061115484828501611005565b91505092915050565b600080fd5b600080fd5b7f4e487b7100000000000000000000000000000000000000000000000000000000600052604160045260246000fd5b61119f82610f08565b810181811067ffffffffffffffff821117156111be576111bd611167565b5b80604052505050565b60006111d1610fa8565b90506111dd8282611196565b919050565b600067ffffffffffffffff8211156111fd576111fc611167565b5b61120682610f08565b9050602081019050919050565b82818337600083830152505050565b6000611235611230846111e2565b6111c7565b90508281526020810184848401111561125157611250611162565b5b61125c848285611213565b509392505050565b600082601f8301126112795761127861115d565b5b8135611289848260208601611222565b91505092915050565b6000602082840312156112a8576112a7610fb2565b5b600082013567ffffffffffffffff8111156112c6576112c5610fb7565b5b6112d284828501611264565b91505092915050565b7f4e487b7100000000000000000000000000000000000000000000000000000000600052602260045260246000fd5b6000600282049050600182168061132257607f821691505b602082108103611335576113346112db565b5b50919050565b7f4572726f722d455243373231207472616e736665722066726f6d20746f20746860008201527f65207a65726f2061646472657373210000000000000000000000000000000000602082015250565b6000611397602f83610ecd565b91506113a28261133b565b604082019050919050565b600060208201905081810360008301526113c68161138a565b9050919050565b7f547279696e6720746f207472616e736665722074686520746f6b656e2066726f60008201527f6d206164647265737320646f6573206e6f74206f776e21000000000000000000602082015250565b6000611429603783610ecd565b9150611434826113cd565b604082019050919050565b600060208201905081810360008301526114588161141c565b9050919050565b7f4e487b7100000000000000000000000000000000000000000000000000000000600052601160045260246000fd5b600061149982610f74565b91506114a483610f74565b92508282019050808211156114bc576114bb61145f565b5b92915050565b60006114cd82610f74565b91506114d883610f74565b92508282039050818111156114f0576114ef61145f565b5b92915050565b7f4f776e657220496e646578206f7574206f6620626f756e647321000000000000600082015250565b600061152c601a83610ecd565b9150611537826114f6565b602082019050919050565b6000602082019050818103600083015261155b8161151f565b9050919050565b7f4e487b7100000000000000000000000000000000000000000000000000000000600052603260045260246000fd5b7f476c6f62616c20496e646578206f7574206f6620626f756e6473210000000000600082015250565b60006115c7601b83610ecd565b91506115d282611591565b602082019050919050565b600060208201905081810360008301526115f6816115ba565b9050919050565b7f4f776e657220717565727920666f72206e6f6e2d6578697374656e7420746f6b60008201527f656e000000000000000000000000000000000000000000000000000000000000602082015250565b6000611659602283610ecd565b9150611664826115fd565b604082019050919050565b600060208201905081810360008301526116888161164c565b9050919050565b600081905092915050565b60006116a582610ec2565b6116af818561168f565b93506116bf818560208601610ede565b80840191505092915050565b60006116d7828461169a565b915081905092915050565b7f4572726f72202d204b727970746f6269726420616c726561647920657869737460008201527f2100000000000000000000000000000000000000000000000000000000000000602082015250565b600061173e602183610ecd565b9150611749826116e2565b604082019050919050565b6000602082019050818103600083015261176d81611731565b9050919050565b60008190508160005260206000209050919050565b60006020601f8301049050919050565b600082821b905092915050565b6000600883026117d67fffffffffffffffffffffffffffffffffffffffffffffffffffffffffffffffff82611799565b6117e08683611799565b95508019841693508086168417925050509392505050565b6000819050919050565b600061181d61181861181384610f74565b6117f8565b610f74565b9050919050565b6000819050919050565b61183783611802565b61184b61184382611824565b8484546117a6565b825550505050565b600090565b611860611853565b61186b81848461182e565b505050565b5b8181101561188f57611884600082611858565b600181019050611871565b5050565b601f8211156118d4576118a581611774565b6118ae84611789565b810160208510156118bd578190505b6118d16118c985611789565b830182611870565b50505b505050565b600082821c905092915050565b60006118f7600019846008026118d9565b1980831691505092915050565b600061191083836118e6565b9150826002028217905092915050565b61192982610ec2565b67ffffffffffffffff81111561194257611941611167565b5b61194c825461130a565b611957828285611893565b600060209050601f83116001811461198a5760008415611978578287015190505b6119828582611904565b8655506119ea565b601f19841661199886611774565b60005b828110156119c05784890151825560018201915060208501945060208101905061199b565b868310156119dd57848901516119d9601f8916826118e6565b8355505b6001600288020188555050505b505050505050565b7f4552433732313a206d696e74696e6720746f20746865207a65726f206164647260008201527f6573732e00000000000000000000000000000000000000000000000000000000602082015250565b6000611a4e602483610ecd565b9150611a59826119f2565b604082019050919050565b60006020820190508181036000830152611a7d81611a41565b9050919050565b7f4552433732313a20546f6b656e20616c72656164792065786973742e00000000600082015250565b6000611aba601c83610ecd565b9150611ac582611a84565b602082019050919050565b60006020820190508181036000830152611ae981611aad565b905091905056fea2646970667358221220ec024e86831af1da2f52ccd6505a1a3fee9eb5596a04db927753e1fb3afb3b7c64736f6c63430008100033",
  "immutableReferences": {},
  "source": "//SPDX-License-Identifier: MIT\npragma solidity ^0.8.16;\nimport './ERC721Connector.sol';\ncontract KryptoBirdz is ERC721Connector{\n\n    //Create an Array\n    string[] public Kryptobirds;\n    mapping(string =>bool) _KryptobirdsExists;\n\n    function mint(string memory _Kryptobird) public{\n        require(!_KryptobirdsExists[_Kryptobird],\"Error - Kryptobird already exist!\");\n        Kryptobirds.push(_Kryptobird);\n        uint _id=Kryptobirds.length-1;\n        _mint(msg.sender,_id);\n        _KryptobirdsExists[_Kryptobird]=true;\n    }\n\n    constructor() ERC721Connector(\"KryptoBirdz\",\"KBIRD\"){\n   }\n}\n\n\n\n\n\n",
  "sourcePath": "/home/user/nft-marketplace-starter-kit/src/contracts/KryptoBirdz.sol",
  "compiler": {
    "name": "solc",
    "version": "0.8.16+commit.07a7930e.Emscripten.clang"
  },
  "schemaVersion": "3.4.8",
  "updatedAt": "2022-08-24T09:46:51.808Z",
  "networkType": "ethereum",
  "devdoc": {
    "kind": "dev",
    "methods": {},
    "version": 1
  },
  "userdoc": {
    "kind": "user",
    "methods": {},
    "version": 1
  }
}