{
  "contractName": "KryptoBirdz",
  "abi": [
    {
      "inputs": [],
      "stateMutability": "nonpayable",
      "type": "constructor"
    },
    {
      "anonymous": false,
      "inputs": [
        {
          "indexed": true,
          "internalType": "address",
          "name": "from",
          "type": "address"
        },
        {
          "indexed": true,
          "internalType": "address",
          "name": "to",
          "type": "address"
        },
        {
          "indexed": true,
          "internalType": "uint256",
          "name": "tokenID",
          "type": "uint256"
        }
      ],
      "name": "Transfer",
      "type": "event"
    },
    {
      "inputs": [
        {
          "internalType": "uint256",
          "name": "",
          "type": "uint256"
        }
      ],
      "name": "Kryptobirds",
      "outputs": [
        {
          "internalType": "string",
          "name": "",
          "type": "string"
        }
      ],
      "stateMutability": "view",
      "type": "function",
      "constant": true
    },
    {
      "inputs": [],
      "name": "_name",
      "outputs": [
        {
          "internalType": "string",
          "name": "",
          "type": "string"
        }
      ],
      "stateMutability": "view",
      "type": "function",
      "constant": true
    },
    {
      "inputs": [],
      "name": "_symbol",
      "outputs": [
        {
          "internalType": "string",
          "name": "",
          "type": "string"
        }
      ],
      "stateMutability": "view",
      "type": "function",
      "constant": true
    },
    {
      "inputs": [],
      "name": "name",
      "outputs": [
        {
          "internalType": "string",
          "name": "",
          "type": "string"
        }
      ],
      "stateMutability": "view",
      "type": "function",
      "constant": true
    },
    {
      "inputs": [],
      "name": "symbol",
      "outputs": [
        {
          "internalType": "string",
          "name": "",
          "type": "string"
        }
      ],
      "stateMutability": "view",
      "type": "function",
      "constant": true
    },
    {
      "inputs": [
        {
          "internalType": "string",
          "name": "_Kryptobird",
          "type": "string"
        }
      ],
      "name": "mint",
      "outputs": [],
      "stateMutability": "nonpayable",
      "type": "function"
    }
  ],
  "bytecode": "0x60806040523480156200001157600080fd5b506040518060400160405280600b81526020017f4b727970746f426972647a0000000000000000000000000000000000000000008152506040518060400160405280600581526020017f4b424952440000000000000000000000000000000000000000000000000000008152508181816000908162000091919062000328565b508060019081620000a3919062000328565b50505050506200040f565b600081519050919050565b7f4e487b7100000000000000000000000000000000000000000000000000000000600052604160045260246000fd5b7f4e487b7100000000000000000000000000000000000000000000000000000000600052602260045260246000fd5b600060028204905060018216806200013057607f821691505b602082108103620001465762000145620000e8565b5b50919050565b60008190508160005260206000209050919050565b60006020601f8301049050919050565b600082821b905092915050565b600060088302620001b07fffffffffffffffffffffffffffffffffffffffffffffffffffffffffffffffff8262000171565b620001bc868362000171565b95508019841693508086168417925050509392505050565b6000819050919050565b6000819050919050565b60006200020962000203620001fd84620001d4565b620001de565b620001d4565b9050919050565b6000819050919050565b6200022583620001e8565b6200023d620002348262000210565b8484546200017e565b825550505050565b600090565b6200025462000245565b620002618184846200021a565b505050565b5b8181101562000289576200027d6000826200024a565b60018101905062000267565b5050565b601f821115620002d857620002a2816200014c565b620002ad8462000161565b81016020851015620002bd578190505b620002d5620002cc8562000161565b83018262000266565b50505b505050565b600082821c905092915050565b6000620002fd60001984600802620002dd565b1980831691505092915050565b6000620003188383620002ea565b9150826002028217905092915050565b6200033382620000ae565b67ffffffffffffffff8111156200034f576200034e620000b9565b5b6200035b825462000117565b620003688282856200028d565b600060209050601f831160018114620003a057600084156200038b578287015190505b6200039785826200030a565b86555062000407565b601f198416620003b0866200014c565b60005b82811015620003da57848901518255600182019150602085019450602081019050620003b3565b86831015620003fa5784890151620003f6601f891682620002ea565b8355505b6001600288020188555050505b505050505050565b610f7b806200041f6000396000f3fe608060405234801561001057600080fd5b50600436106100625760003560e01c806306fdde031461006757806395d89b4114610085578063b09f1266146100a3578063d28d8852146100c1578063d85d3d27146100df578063fd2d686d146100fb575b600080fd5b61006f61012b565b60405161007c91906107d6565b60405180910390f35b61008d6101bd565b60405161009a91906107d6565b60405180910390f35b6100ab61024f565b6040516100b891906107d6565b60405180910390f35b6100c96102dd565b6040516100d691906107d6565b60405180910390f35b6100f960048036038101906100f49190610941565b61036b565b005b610115600480360381019061011091906109c0565b610467565b60405161012291906107d6565b60405180910390f35b60606000805461013a90610a1c565b80601f016020809104026020016040519081016040528092919081815260200182805461016690610a1c565b80156101b35780601f10610188576101008083540402835291602001916101b3565b820191906000526020600020905b81548152906001019060200180831161019657829003601f168201915b5050505050905090565b6060600180546101cc90610a1c565b80601f01602080910402602001604051908101604052809291908181526020018280546101f890610a1c565b80156102455780601f1061021a57610100808354040283529160200191610245565b820191906000526020600020905b81548152906001019060200180831161022857829003601f168201915b5050505050905090565b6001805461025c90610a1c565b80601f016020809104026020016040519081016040528092919081815260200182805461028890610a1c565b80156102d55780601f106102aa576101008083540402835291602001916102d5565b820191906000526020600020905b8154815290600101906020018083116102b857829003601f168201915b505050505081565b600080546102ea90610a1c565b80601f016020809104026020016040519081016040528092919081815260200182805461031690610a1c565b80156103635780601f1061033857610100808354040283529160200191610363565b820191906000526020600020905b81548152906001019060200180831161034657829003601f168201915b505050505081565b60058160405161037b9190610a89565b908152602001604051809103902060009054906101000a900460ff16156103d7576040517f08c379a00000000000000000000000000000000000000000000000000000000081526004016103ce90610b12565b60405180910390fd5b60048190806001815401808255809150506001900390600052602060002001600090919091909150908161040b9190610cde565b50600060016004805490506104209190610ddf565b905061042c3382610513565b600160058360405161043e9190610a89565b908152602001604051809103902060006101000a81548160ff0219169083151502179055505050565b6004818154811061047757600080fd5b90600052602060002001600091509050805461049290610a1c565b80601f01602080910402602001604051908101604052809291908181526020018280546104be90610a1c565b801561050b5780601f106104e05761010080835404028352916020019161050b565b820191906000526020600020905b8154815290600101906020018083116104ee57829003601f168201915b505050505081565b600073ffffffffffffffffffffffffffffffffffffffff168273ffffffffffffffffffffffffffffffffffffffff1603610582576040517f08c379a000000000000000000000000000000000000000000000000000000000815260040161057990610e85565b60405180910390fd5b61058b816106d4565b156105cb576040517f08c379a00000000000000000000000000000000000000000000000000000000081526004016105c290610ef1565b60405180910390fd5b816002600083815260200190815260200160002060006101000a81548173ffffffffffffffffffffffffffffffffffffffff021916908373ffffffffffffffffffffffffffffffffffffffff1602179055506001600360008473ffffffffffffffffffffffffffffffffffffffff1673ffffffffffffffffffffffffffffffffffffffff168152602001908152602001600020600082825461066d9190610f11565b92505081905550808273ffffffffffffffffffffffffffffffffffffffff16600073ffffffffffffffffffffffffffffffffffffffff167fddf252ad1be2c89b69c2b068fc378daa952ba7f163c4a11628f55a4df523b3ef60405160405180910390a45050565b6000806002600084815260200190815260200160002060009054906101000a900473ffffffffffffffffffffffffffffffffffffffff169050600073ffffffffffffffffffffffffffffffffffffffff168173ffffffffffffffffffffffffffffffffffffffff161415915050919050565b600081519050919050565b600082825260208201905092915050565b60005b83811015610780578082015181840152602081019050610765565b60008484015250505050565b6000601f19601f8301169050919050565b60006107a882610746565b6107b28185610751565b93506107c2818560208601610762565b6107cb8161078c565b840191505092915050565b600060208201905081810360008301526107f0818461079d565b905092915050565b6000604051905090565b600080fd5b600080fd5b600080fd5b600080fd5b7f4e487b7100000000000000000000000000000000000000000000000000000000600052604160045260246000fd5b61084e8261078c565b810181811067ffffffffffffffff8211171561086d5761086c610816565b5b80604052505050565b60006108806107f8565b905061088c8282610845565b919050565b600067ffffffffffffffff8211156108ac576108ab610816565b5b6108b58261078c565b9050602081019050919050565b82818337600083830152505050565b60006108e46108df84610891565b610876565b905082815260208101848484011115610900576108ff610811565b5b61090b8482856108c2565b509392505050565b600082601f8301126109285761092761080c565b5b81356109388482602086016108d1565b91505092915050565b60006020828403121561095757610956610802565b5b600082013567ffffffffffffffff81111561097557610974610807565b5b61098184828501610913565b91505092915050565b6000819050919050565b61099d8161098a565b81146109a857600080fd5b50565b6000813590506109ba81610994565b92915050565b6000602082840312156109d6576109d5610802565b5b60006109e4848285016109ab565b91505092915050565b7f4e487b7100000000000000000000000000000000000000000000000000000000600052602260045260246000fd5b60006002820490506001821680610a3457607f821691505b602082108103610a4757610a466109ed565b5b50919050565b600081905092915050565b6000610a6382610746565b610a6d8185610a4d565b9350610a7d818560208601610762565b80840191505092915050565b6000610a958284610a58565b915081905092915050565b7f4572726f72202d204b727970746f6269726420616c726561647920657869737460008201527f2100000000000000000000000000000000000000000000000000000000000000602082015250565b6000610afc602183610751565b9150610b0782610aa0565b604082019050919050565b60006020820190508181036000830152610b2b81610aef565b9050919050565b60008190508160005260206000209050919050565b60006020601f8301049050919050565b600082821b905092915050565b600060088302610b947fffffffffffffffffffffffffffffffffffffffffffffffffffffffffffffffff82610b57565b610b9e8683610b57565b95508019841693508086168417925050509392505050565b6000819050919050565b6000610bdb610bd6610bd18461098a565b610bb6565b61098a565b9050919050565b6000819050919050565b610bf583610bc0565b610c09610c0182610be2565b848454610b64565b825550505050565b600090565b610c1e610c11565b610c29818484610bec565b505050565b5b81811015610c4d57610c42600082610c16565b600181019050610c2f565b5050565b601f821115610c9257610c6381610b32565b610c6c84610b47565b81016020851015610c7b578190505b610c8f610c8785610b47565b830182610c2e565b50505b505050565b600082821c905092915050565b6000610cb560001984600802610c97565b1980831691505092915050565b6000610cce8383610ca4565b9150826002028217905092915050565b610ce782610746565b67ffffffffffffffff811115610d0057610cff610816565b5b610d0a8254610a1c565b610d15828285610c51565b600060209050601f831160018114610d485760008415610d36578287015190505b610d408582610cc2565b865550610da8565b601f198416610d5686610b32565b60005b82811015610d7e57848901518255600182019150602085019450602081019050610d59565b86831015610d9b5784890151610d97601f891682610ca4565b8355505b6001600288020188555050505b505050505050565b7f4e487b7100000000000000000000000000000000000000000000000000000000600052601160045260246000fd5b6000610dea8261098a565b9150610df58361098a565b9250828203905081811115610e0d57610e0c610db0565b5b92915050565b7f4552433732313a206d696e74696e6720746f20746865207a65726f206164647260008201527f6573732e00000000000000000000000000000000000000000000000000000000602082015250565b6000610e6f602483610751565b9150610e7a82610e13565b604082019050919050565b60006020820190508181036000830152610e9e81610e62565b9050919050565b7f4552433732313a20546f6b656e20616c72656164792065786973742e00000000600082015250565b6000610edb601c83610751565b9150610ee682610ea5565b602082019050919050565b60006020820190508181036000830152610f0a81610ece565b9050919050565b6000610f1c8261098a565b9150610f278361098a565b9250828201905080821115610f3f57610f3e610db0565b5b9291505056fea2646970667358221220cbdf81c03fbf14514c3fe5e528f5bb5d248492e8e7f0a414b66313e1fae50ea664736f6c63430008100033",
  "immutableReferences": {},
  "source": "//SPDX-License-Identifier: MIT\npragma solidity ^0.8.16;\nimport './ERC721Connector.sol';\ncontract KryptoBirdz is ERC721Connector{\n\n    //Create an Array\n    string[] public Kryptobirds;\n    mapping(string =>bool) _KryptobirdsExists;\n\n    function mint(string memory _Kryptobird) public{\n        require(!_KryptobirdsExists[_Kryptobird],\"Error - Kryptobird already exist!\");\n        Kryptobirds.push(_Kryptobird);\n        uint _id=Kryptobirds.length-1;\n        _mint(msg.sender,_id);\n        _KryptobirdsExists[_Kryptobird]=true;\n    }\n\n    constructor() ERC721Connector(\"KryptoBirdz\",\"KBIRD\"){\n   }\n}\n\n\n",
  "sourcePath": "/home/user/nft-marketplace-starter-kit/src/contracts/KryptoBirdz.sol",
  "compiler": {
    "name": "solc",
    "version": "0.8.16+commit.07a7930e.Emscripten.clang"
  },
  "schemaVersion": "3.4.8",
  "updatedAt": "2022-08-11T13:41:38.903Z",
  "networkType": "ethereum",
  "devdoc": {
    "kind": "dev",
    "methods": {},
    "version": 1
  },
  "userdoc": {
    "kind": "user",
    "methods": {},
    "version": 1
  }
}