{
  "contractName": "Migrations",
  "abi": [
    {
      "inputs": [],
      "name": "last_completed_migrations",
      "outputs": [
        {
          "internalType": "uint256",
          "name": "",
          "type": "uint256"
        }
      ],
      "stateMutability": "view",
      "type": "function",
      "constant": true
    },
    {
      "inputs": [],
      "name": "owner",
      "outputs": [
        {
          "internalType": "address",
          "name": "",
          "type": "address"
        }
      ],
      "stateMutability": "view",
      "type": "function",
      "constant": true
    },
    {
      "inputs": [
        {
          "internalType": "uint256",
          "name": "completed",
          "type": "uint256"
        }
      ],
      "name": "setCompleted",
      "outputs": [],
      "stateMutability": "nonpayable",
      "type": "function"
    },
    {
      "inputs": [
        {
          "internalType": "address",
          "name": "new_address",
          "type": "address"
        }
      ],
      "name": "upgrade",
      "outputs": [],
      "stateMutability": "nonpayable",
      "type": "function"
    }
  ],
  "bytecode": "0x6080604052336000806101000a81548173ffffffffffffffffffffffffffffffffffffffff021916908373ffffffffffffffffffffffffffffffffffffffff16021790555034801561005057600080fd5b506104ab806100606000396000f3fe608060405234801561001057600080fd5b506004361061004c5760003560e01c80630900f0101461005157806329dcf0681461006d5780638da5cb5b1461008b578063fdacd576146100a9575b600080fd5b61006b600480360381019061006691906102ee565b6100c5565b005b6100756101c9565b6040516100829190610334565b60405180910390f35b6100936101cf565b6040516100a0919061035e565b60405180910390f35b6100c360048036038101906100be91906103a5565b6101f3565b005b60008054906101000a900473ffffffffffffffffffffffffffffffffffffffff1673ffffffffffffffffffffffffffffffffffffffff163373ffffffffffffffffffffffffffffffffffffffff1614610153576040517f08c379a000000000000000000000000000000000000000000000000000000000815260040161014a90610455565b60405180910390fd5b60008190508073ffffffffffffffffffffffffffffffffffffffff1663fdacd5766001546040518263ffffffff1660e01b81526004016101939190610334565b600060405180830381600087803b1580156101ad57600080fd5b505af11580156101c1573d6000803e3d6000fd5b505050505050565b60015481565b60008054906101000a900473ffffffffffffffffffffffffffffffffffffffff1681565b60008054906101000a900473ffffffffffffffffffffffffffffffffffffffff1673ffffffffffffffffffffffffffffffffffffffff163373ffffffffffffffffffffffffffffffffffffffff1614610281576040517f08c379a000000000000000000000000000000000000000000000000000000000815260040161027890610455565b60405180910390fd5b8060018190555050565b600080fd5b600073ffffffffffffffffffffffffffffffffffffffff82169050919050565b60006102bb82610290565b9050919050565b6102cb816102b0565b81146102d657600080fd5b50565b6000813590506102e8816102c2565b92915050565b6000602082840312156103045761030361028b565b5b6000610312848285016102d9565b91505092915050565b6000819050919050565b61032e8161031b565b82525050565b60006020820190506103496000830184610325565b92915050565b610358816102b0565b82525050565b6000602082019050610373600083018461034f565b92915050565b6103828161031b565b811461038d57600080fd5b50565b60008135905061039f81610379565b92915050565b6000602082840312156103bb576103ba61028b565b5b60006103c984828501610390565b91505092915050565b600082825260208201905092915050565b7f546869732066756e6374696f6e206973207265737472696374656420746f207460008201527f686520636f6e74726163742773206f776e657221000000000000000000000000602082015250565b600061043f6034836103d2565b915061044a826103e3565b604082019050919050565b6000602082019050818103600083015261046e81610432565b905091905056fea26469706673582212206e11ab3fcb93c3ce67f78ef7e8a40be05f93cdbc3bb635d98e060c90f1299da064736f6c63430008100033",
  "source": "//SPDX-License-Identifier: MIT\npragma solidity ^0.8.0;\n\ncontract Migrations{\n    address public owner=msg.sender;\n    uint public last_completed_migrations;\n\n    modifier restricted(){\n        require(\n            msg.sender==owner,\n            \"This function is restricted to the contract's owner!\"\n        );\n    _;\n }\n function setCompleted(uint completed) public restricted{\n    last_completed_migrations=completed;\n }\n\n function upgrade(address new_address) public restricted{\n    Migrations upgraded=Migrations(new_address);\n    upgraded.setCompleted(last_completed_migrations);\n }\n}",
  "sourcePath": "/home/user/nft-marketplace-starter-kit/src/contracts/Migrations.sol",
  "compiler": {
    "name": "solc",
    "version": "0.8.16+commit.07a7930e.Emscripten.clang"
  },
  "schemaVersion": "3.4.8",
  "updatedAt": "2022-08-10T15:40:49.707Z",
  "networkType": "ethereum",
  "devdoc": {
    "kind": "dev",
    "methods": {},
    "version": 1
  },
  "userdoc": {
    "kind": "user",
    "methods": {},
    "version": 1
  }
}